:0A0000000C9454000C9400000C94C2
:10000A0000000C9400000C9400000C9400000C9466
:10001A0000000C9400000C9400000C9400000C9456
:10002A0000000C9400000C9400000C9400000C9446
:10003A0000000C9400000C9400000C9400000C9436
:10004A0084000C9400000C9400000C9400000C94A2
:10005A0000000C9400000C9400000C9400000C9416
:10006A0000000C9400000C9400000C9400000C9406
:10007A008D000C9400000C9400000C9400000C9469
:10008A0000001027E80364000A00010000100001C4
:10009A001000010080C0020000059E000000F894D4
:1000AA00EE27ECBBF1E0F5BFE5BFE0936C008DE015
:1000BA00A2E0BB27ED938A95E9F780E090E1A0E002
:1000CA00B1E0ED930197E9F7E0EAF0E085919591C7
:1000DA00009761F0A591B59105901590BF01F001C7
:1000EA0005900D920197E1F7FB01F0CF8BBFEFEF7F
:1000FA00EDBFE0E1EEBFC0E0D5E00C94DD00DBD05F
:10010A005CB0E1E0F0E0FA93EA93A52D1AD00BC0B7
:10011A00D2D040909C00E0E0F0E0FA93EA93A42D5C
:10012A0010D0A42D8AD0E991EFBFF991E991B99144
:10013A00A9919991899179916991F9901990099068
:10014A001895D2D01A2F2C813D81F901309721F4CC
:10015A005D9BFECF1CB90AC0E130A0E0FA0731F47A
:10016A00E0919B00E072E1F310939C00C2D02696C6
:10017A000895E0E0EBB9E8E9EAB9E6E0E093950032
:10018A00E0E0E0939000E7E6E9B9E0E0E0939B0065
:10019A00E8E9E0939A00E6E0E0939D00E0E0E0936E
:1001AA009800E7E6E0939900A0E15AD07894089580
:1001BA00E0DFA0E155D037D0FFCFFFCF1A931A2F37
:1001CA00EBB3EF70AE2FE12FE07FEA2BEBBB8BE1B5
:1001DA008A95F1F7DB9A8BE18A95F1F7DB988BE147
:1001EA008A95F1F766C0AA93A881E8DFE881E295CB
:1001FA00E883A881E3DF88EC90E00197F1F7219684
:10020A0008951A930A931A2F0A81E12FF0E0E05019
:10021A00FB4FE081E00FAE2FE6DF702E612E1981D1
:10022A00088123960895A2E054D0ACE0DCDFA1E077
:10023A0050D0E0E06E2E7E2E08951A931A2F1A30AF
:10024A0011F0791438F0E0E0EA936394A62DD9DF2F
:10025A001A3079F17394D99AA12FC5DFD99829C098
:10026A001A931A2FEAB3E06FEABBD39AD19AD29AB9
:10027A00DB98D998DA98912EE12FE058E09302059D
:10028A00E12FE054E0930305A4E1B0E037D025D094
:10029A0024D023D0A0E292DF80E991E00197F1F720
:1002AA00A8E2A1DFA4E09FDFA5E89DDFA6E09BDF2F
:1002BA00BADF199108950A921A92FA926A937A9376
:1002CA008A939A93AA93BA93EA93FA93EFB7EA9323
:1002DA00089589DFA3E0B0E011C0A0E36FDF80E9F1
:1002EA0091E00197F1F708953A932A931A930A93A2
:1002FA0008953B812A81198108810895109639F061
:10030A00A89580EA9FE00197F1F71197C9F7089538
:00000001FF
