:0E0000000C9477000C9400000C9400000C94FB
:10000E0000000C9400000C9400000C9400000C9462
:10001E0000000C9400000C9400000C9400000C9452
:10002E0000000C9400000C9400000C9400000C9442
:10003E0000000C9400000C9400000C9450010C94E1
:10004E0000000C9400000C9400000C9400000C9422
:10005E0000000C9400000C9400000C9400000C9412
:10006E0000000C9400000C9400000C9453010C94AE
:10007E0000000C9400000C9400000C94000010275B
:10008E00E80364000A0001000010000110000100E6
:10009E003B3C3D3E3F4041424344454647480D0AA6
:1000AE006D7075363035302074656D703D25646326
:1000BE002C61783D25642C61793D25642C617A3D57
:1000CE0025642C67783D25642C67793D25642C6763
:1000DE007A3D25640D0A00000E0012059E000000F8
:1000EE00F894EE27ECBBF1E0F5BFE5BFE0936C00B2
:1000FE008DE0A2E0BB27ED938A95E9F780E090E1D1
:10010E00A0E0B1E0ED930197E9F7E6EEF0E085911E
:10011E009591009761F0A591B59105901590BF014D
:10012E00F00105900D920197E1F7FB01F0CF8BBF27
:10013E00EFEFEDBFE0E1EEBFC0E0D5E00C94DB01E8
:10014E00B3D30A2F3C81E4EAE0937400E09174008B
:10015E00E07811F057D309F0F9CF59D3E09174003C
:10016E00E07811F05ED309F0F9CF60D3E09174001E
:10017E00E07811F063D309F0F9CFE4EAE09374006C
:10018E00E0917400E07829F0E0917100E87FE031B1
:10019E0009F0F6CFE32FEE0FEF5FE093730053D32A
:1001AE00E0917400E07829F0E0917100E87FE0348E
:1001BE0009F0F6CF48D3E0917400E07829F0E09191
:1001CE007100E87FE83509F0F6CF10917300E4E98D
:1001DE00E093740085E38A95F1F7E12F6CD32596B1
:1001EE00089562D31A2F0C813D81E4EAE0937400E6
:1001FE00E0917400E07811F005D309F0F9CF07D340
:10020E00E0917400E07811F00CD309F0F9CF0ED321
:10021E00E0917400E07811F011D309F0F9CF10934A
:10022E00730011D3E0917400E07811F007D309F058
:10023E00F9CFE4E9E093740088EC90E00197F1F7D0
:10024E0025C032D31A2F2C813D81F901309721F42C
:10025E005D9BFECF1CB90AC0E130A0E0FA0731F475
:10026E00E0919B00E072E1F310939C000FC01CD351
:10027E008D012C813D81D801EC91E03039F03A931B
:10028E002A93AC91DEDF0F5F1F4FF5CF14D3269666
:10029E0008951A931CB103C01A9310919C001991E2
:1002AE0018955524EEE05E1698F4E52DF0E0E05E2C
:1002BE00FA4FFF93EF93E8E6EA93E52DF0E0EE5E5A
:1002CE00FA4FA0813DDFAF91BF91EC935394EACFEB
:1002DE00B0912005A0E0E0912105F0E0EA2BFB2B88
:1002EE00E0932E05F0932F05B0912205A0E0E0914A
:1002FE002305F0E0EA2BFB2BE0933005F09331055C
:10030E00B0912405A0E0E0912505F0E0EA2BFB2B4F
:10031E00E0933205F0933305B0912605A0E0E0910D
:10032E002705F0E0EA2BFB2BE0930005F093010587
:10033E00E0910005F0910105D7D252D3A0E0B0EFC5
:10034E0081E496E480D3DF01CB01E0E0F0E06AEADD
:10035E0073E4C8D3A4E3B5E00CD3ED93FC93B09152
:10036E002805A0E0E0912905F0E0EA2BFB2BE093B5
:10037E003605F0933705B0912A05A0E0E0912B05E4
:10038E00F0E0EA2BFB2BE0933805F0933905B091A2
:10039E002C05A0E0E0912D05F0E0EA2BFB2BE0937D
:1003AE003A05F0933B050895E0EEE7BBE0E0E8BBCD
:1003BE00E1BBE2BBE8E3E2B9E8EFE3B9EFEFE4BBA0
:1003CE00E0E0EBB9E8E9EAB9E6E0E0939500E0E0B9
:1003DE00E0939000E7E6E9B9E0E0E0939A007894C4
:1003EE00E0937100E2E1E0937000E8E6EA93EBE659
:1003FE0030D2ECE62ED2EBE1EA93A0E1F2DEE8E6B3
:10040E00EA93ECE1EA93A0E1ECDE4BDF4ADFE2E0B7
:10041E00F5E0FA93EA93ECEAF0E0FA93EA93E091CE
:10042E003405F091350560D26CD2E0912E05F09135
:10043E002F055AD266D2E0913005F091310554D293
:10044E0060D2E0913205F09133054ED25AD2E0914E
:10045E003605F091370548D254D2E0913805F09127
:10046E00390542D24ED2E0913A05F0913B053CD28D
:10047E0048D28CE17DD1A096E0E0F0E0FA93EA93C9
:10048E00A2E0B5E0F4DEA0913605B09137053ED27C
:10049E0014F4A89A08C0A0913705AA231AF4A898B4
:1004AE00A99A02C0A898A998A0913805B0913905CB
:1004BE002DD214F4AA9A08C0A0913905AA231AF4D1
:1004CE00AA98AB9A02C0AA98AB98A0CFFFCFEAD158
:1004DE009D015E8112960DD23097E1F0D9011496EE
:1004EE0008D28F01309759F00230E0E01E0760F01D
:1004FE00F80131978F01D9011496ED93FC93D90130
:10050E001296ADD131975083D901F3D1FF230AF062
:10051E00A6D105C0D901EFEFFFEFED93FC93C9D142
:10052E0027960895BA93AA932697BCD110E0AC856E
:10053E00BD85E0E0F0E0ED93FC93EA89FB8931960E
:10054E00EA8BFB8B3197E4912E2FE03009F409C131
:10055E00E12FE03031F4253211F411E001C085D1E4
:10056E00FFC0E130A1F4253211F47FD1F8C012E0C2
:10057E0040E000E02D3211F401E0F2C02B3211F414
:10058E004BE2EEC0203211F440E2EAC002C0E2308B
:10059E0039F450E013E0203311F40068E1C003C0D9
:1005AE00E33009F0DDC0203310F02A3308F007C025
:1005BE00AAE05A9F502DE22FE0535E0FD1C0E22FDA
:1005CE00E33639F459D1E889F989A481AA935AD12D
:1005DE00C6C0E33729F450D15BD1FBD01E2F07C024
:1005EE00E03749F449D154D100D11E2F0860026082
:1005FE000F7730E038C0E43611F0E93611F40460BC
:10060E0002C0E53731F4ECE8F0E0EE83FF8315E04D
:10061E000CC0E83511F4086003C0E83709F09FC03C
:10062E00E6E9F0E0EE83FF8314E002FF15C024D16B
:10063E00A889B9891496ED91FD91EA87FB87AB8560
:10064E00AA2322F445D1EA87FB874DE2403011F010
:10065E001F5F01C00B7F07C00FD1A889B9891496FF
:10066E0048D1EA87FB8700FD10C0151770F407FF0D
:10067E0008C002FF04C00B7F242F115001C020E3DD
:10068E0001C020E2F2D05150F0CF312F01FF16C041
:10069E00303099F003FF06C0EE81FF812591EE8385
:1006AE00FF8305C0AE81BF812D91AE83BF83DDD0A8
:1006BE00503009F051503150EBCF48C020E3EE815D
:1006CE00FF811BD1E887F987EE81FF813296EE8399
:1006DE00FF83E885F985AA85BB85AE17BF0750F065
:1006EE002F5FA885B985EA85FB85EA1BFB0BEA8798
:1006FE00FB87EFCF2A3328F003FF02C0295F01C02A
:10070E00295D04FD19C0213320F4A885B985119700
:10071E0009F409C0531710F000FF01C011C020E208
:10072E0007FF0AC020E3006102FF06C00B7F4A9359
:10073E00A9D0503009F0515098D0503009F0515096
:10074E003150A885B985129708F0B8CF00FF07C0C1
:10075E00503029F05150E0E2EA9394D0F9CF10E0F6
:10076E00ECCEAC85BD85ED91FD91A3D06496089538
:10077E00FF92F82E269796D0FE01A2D04685578579
:10078E00042E052A19F4EFEFFFEF1FC0DE011896B5
:10079E009BD08D0148875987E0E0EA87EB87DE0121
:1007AE001C9692D0ED91FD91FA93EA931A930A93C7
:1007BE00EEE6F2E0FA93EA93DE011C96B3DE9F01B9
:1007CE00A885B985E0E0EC93F90173D02C96FF90E3
:1007DE000895BA93AA93A991B991EE27FF276D9127
:1007EE00662311F03196FBCF0895BA93AA93AA27E8
:1007FE00BB27E991F9910590002011F01196FBCFDE
:10080E00FD010895E0917100E87FE8300895E32F2F
:10081E00EE0FE0937300E0917400EF7DE0937400AF
:10082E000895E0917100E87FE83108950093730018
:10083E00E0917400EF7DE09374000895E0917100F3
:10084E00E87FE8320895E0917400EF7DE093740044
:10085E000895EA93A0E0C5DCE8E6EA930895ED91E9
:10086E00FD913196FE93EE9308952A93AD85BE8544
:10087E00EF85F88909950895E889F9893497E88B09
:10088E00F98B0895AD85BE85EF85F8890995089594
:10089E00A889B9891496ED91FD91EE83FF83AE81FF
:1008AE00BF8108955A934A933A932A931A930A93BF
:1008BE0008955D814C813B812A81198108810895BB
:1008CE000024EF0DF01D08950024AF0DB01D089506
:1008DE00F195E195F0400895F09560957095E1954C
:1008EE00FF4F6F4F7F4F08956F2F660F660B762F5A
:1008FE000895ED91FC91119708950590F491E02DD6
:10090E0008957A936A93FA93EA93089500240A1647
:10091E000B060895552342F4503811F4E0FF04C03D
:10092E003196691F791F6BF050E8572711F45F93CA
:10093E00C8C05F3F31F0660F000C57956795752F55
:10094E0008955F9300200AF0C7C0C0C050E8192E6A
:10095E001522880F991F9527550F879550E8072E5A
:10096E000522660F771F7527550F679508956894B2
:10097E0001C0E8945F93F2DF703818F07F3F08F4FF
:10098E00A0C056E1571BAAF4519558300EF45930B9
:10099E0030F0EFEFFFEF6FEF7FE777F91AC07727B1
:1009AE005523B9F0EE0FFF1F661F771F5A95D1F72B
:1009BE0010C07727583028F0EF2FF62F672F58509A
:1009CE00F9CF552331F076956795F795E7955A95BA
:1009DE00D1F700200AF480DF5F910895689401C07A
:1009EE00E894309760407040B1F0002426F07723F1
:1009FE0012F4009471DF172E7EE1112032F07A95F9
:100A0E00EE0FFF1F661F111CF9CFEF2FF62F612D72
:100A1E005F938ADF5F9108954F93AF01FD01DA0175
:100A2E00AB01BC01CA01402D012C142E4F9108952B
:100A3E00EA0FFB1F681F0895E095F0956095EF5F34
:100A4E00FF4F6F4F08955F9381DF903839F1703803
:100A5E0021F1572F591B2BF112F4DEDFFACF58314B
:100A6E0018F0AA27BB278827583028F0AB2FB82FAD
:100A7E0088275850F9CF552329F08695B795A79515
:100A8E005A95D9F7502D512572F0D2DF38F467956B
:100A9E00F795E795739513F41FC0BEDF45DF5F91A1
:100AAE000895D8F7FBCFEA1BFB0B680B51F010F43F
:100ABE000094C2DF662392F3EE0FFF1F661F7A9536
:100ACE00CBF7EE27FF27BF015F910895EFEFFFEF02
:100ADE006FE77FEF5F910895EFEFFFEF6FE77FE72F
:100AEE005F9108955F9332DF703821F411200AF47C
:100AFE00EDCFF2CF903809F4E4CF01240894970B90
:100B0E001BF4D4F30020F3CF792F1F932F933F9331
:100B1E004F931124112722273327A90190E2AE17F4
:100B2E00BF078607410730F0AE1BBF0B860B410B8C
:100B3E00089401C08894551F221F331F111CAA1F31
:100B4E00BB1F881F441F9A9551F7F901612D4F91D4
:100B5E003F912F911F91662332F0550FEE1FFF1F0D
:100B6E00661F7A954BF2D6DE5F910895109639F096
:100B7E00A89580EA9FE00197F1F71197C9F70895BC
:00000001FF
